:1000000012C02CC02BC02AC029C028C027C026C0BF
:1000100025C024C023C011C1D1C020C01FC01EC034
:100020001DC01CC01BC011241FBECFE5D4E0DEBF25
:10003000CDBF10E0A0E6B0E0E0E3FCE002C0059038
:100040000D92A23FB107D9F712E0A2EFB0E001C0D4
:100050001D92A335B107E1F72CD0E8C5D1CFCF93DE
:10006000DB0111961C921E92FC0140814423F9F0A1
:1000700020E030E0C0E0B901660F771F220F331F88
:10008000220F331F220F331F260F371F552747FD1F
:100090005095240F351F2053304011963C932E93DA
:1000A000CF5FFC01EC0FF11D4081442321F7CF917C
:1000B0000895BF92CF92DF92EF92FF920F931F931A
:1000C000DF93CF9300D000D0CDB7DEB784EE90E0C1
:1000D0009093500280934F0290934E0280934D0272
:1000E00033D180E090E0DC0189839A83AB83BC83C9
:1000F0008E010F5F1F4FB89AB99ABA9ABB9ABC9AF1
:10010000BD9A8FEF88BBA298A39878944ED180E6D1
:1001100090E063E070E04FE250E02BD183E690E0A6
:1001200062E070E04FE250E024D187E690E061E0C9
:1001300070E040E050E01DD189E690E095D2A1EC5E
:10014000EA2EA0E0FA2EF3EDCF2EF0E0DF2EBB2456
:10015000BA94D0D06BE471E0A80106D28230910548
:1001600089F083309105B1F08130910591F78CE8E9
:1001700090E07AD2BFD06BE471E0A801F5D1823073
:10018000910579F7B8BA00D000D0EDB7FEB7F2828A
:10019000E18207C018BA00D000D0EDB7FEB7D28216
:1001A000C182F80180819181EDB7FEB7948383838A
:1001B00049D20F900F900F900F90CBCF1F920F92BC
:1001C0000FB60F9211242F933F938F939F93EF932A
:1001D000FF93209196013091970180917401909145
:1001E00075012817390739F1E0919601F0919701CF
:1001F000EE50FF4F80818CB98091960190919701CC
:100200000196909397018093960180919601909129
:1002100097018038910524F0109297011092960171
:10022000FF91EF919F918F913F912F910F900FBE72
:100230000F901F9018955598F3CF1F920F920FB6FD
:100240000F9211248F939F93EF93FF93E09172018C
:10025000F09173018CB1E356FE4F8083809172015F
:100260009091730101969093730180937201809134
:100270007201909173018038910524F010927301FE
:1002800010927201FF91EF919F918F910F900FBE8D
:100290000F901F901895E0917401F0917501EE5048
:1002A000FF4F808380917401909175010196909326
:1002B000750180937401809174019091750180386B
:1002C000910524F01092750110927401559A0895C9
:1002D000CF93C82F8A3031F08C2FDDDF80E090E0A3
:1002E000CF9108958DE0F4DF8C2FD5DF80E090E092
:1002F000CF910895209198013091990180917201D8
:100300009091730128173907E9F0E0919801F09175
:100310009901E356FE4F8081209198013091990117
:100320002F5F3F4F309399012093980120919801BE
:10033000309199012038310534F0109299011092D2
:10034000980108958FEF08951092F200109297018E
:100350001092960110927501109274018AB1886111
:100360008AB9579A80B5866880BD10BC87E189B983
:100370000895A0919B012A2F30E0F901EE0FFF1F95
:10038000E20FF31FEE0FFF1FE35EFD4F91838083AB
:100390007383628355834483AF5FA0939B01A8302E
:1003A00018F087E080939B010895109276011092D7
:1003B0009C0110929A0110929B0108956F927F9276
:1003C0009F92AF92BF92CF92DF92EF92FF920F93E4
:1003D0001F93DF93CF93CDB7DEB760970FB6F89436
:1003E000DEBF0FBECDBF3B01FC012081222309F4FB
:1003F000B4C0203209F4A7C06E010894C11CD11CFE
:10040000D601319630E02D933F5F2191222309F4EC
:100410007CC0203209F486C03830A9F739E0E9E021
:10042000F0E0A8E0B0E0AC0DBD1D1C92E80FF91F94
:100430002081222309F47FC0303208F07CC019E00B
:10044000A12EB12CAC0EBD1EF50140E021933F5F03
:100450004F5FDC01A30FB11D2C91222309F468C06A
:10046000303208F065C0483089F7E8E0F0E0EA0D86
:10047000FB1D108290909B01992009F443C00DE16F
:1004800012E0EE24FF2407C00894E11CF11C0A5F6F
:100490001F4FE914B8F5F80180819181B601C9D0E8
:1004A000009791F78701000F111FF801EE0DFF1D56
:1004B000EE0FFF1FE35EFD4F0480F581E02D3097C6
:1004C00019F0C501B3010995F801EE0DFF1DEE0FFE
:1004D000FF1FE35EFD4F22813381C90160960FB695
:1004E000F894DEBF0FBECDBFCF91DF911F910F916A
:1004F000FF90EF90DF90CF90BF90AF909F907F9054
:100500006F90089520E030E0E8CFE32FF0E0EC0DAD
:10051000FD1D1082E0E0F0E039E0A32EB12CAC0E1E
:10052000BD1EA5CFA32FB0E03F5FE32FF0E07BCF50
:10053000E42FF0E09CCFE0E0F0E029E0A22EB12C27
:10054000AC0EBD1E94CF31E0E1E0F0E0A0E0B0E001
:100550006E010894C11CD11C66CFE0E0F0E06E0192
:100560000894C11CD11CD3CFEF92FF920F931F931D
:10057000DF93CF930F92CDB7DEB7982F7B018A011F
:100580008F3F09F453C08D30C1F18F37D1F099837B
:10059000FB01099580919C01E82FF0E0EA58FE4F9D
:1005A0009981908380939A018F5F80939C01803220
:1005B000B8F5E82FF0E0EA58FE4F108220E030E076
:1005C00013C088E0FB01099580E2F701099588E0F6
:1005D000F7010995E0919A01E0939C01F0E0EA5857
:1005E000FE4F108220E030E0C9010F90CF91DF91E3
:1005F0001F910F91FF90EF9008958AE0FB010995FC
:100600008DE0F701099586E791E0B801D7DE1092F9
:10061000760110929C0110929A01282F30E0E4CFCD
:100620008FE180939C01EFE1F0E0C5CF20E030E066
:10063000DBCFFB01DC018D91019080190110D9F312
:10064000990B0895A0E0B0E0E7E2F3E0C8C2FE0134
:1006500035966191719180914F0290915002AF0156
:1006600036D02096E2E0D7C20F931F93CF93DF934B
:100670008C01E0914F02F0915002838181FF1FC0F5
:10068000C0E0D0E00AC0DB011896ED91FC9119970B
:100690000995009711F0CFEFDFEFF80181918F01FD
:1006A00060914F0270915002882369F7DB01189620
:1006B000ED91FC9119978AE00995009711F0CFEF21
:1006C000DFEFCE01DF91CF911F910F910895ACE044
:1006D000B0E0ECE6F3E073C26C011B018A01FC019F
:1006E00017821682838181FFC4C12E010894411CA8
:1006F000511CF6019381F10193FD859193FF819146
:100700001F01882309F4B1C1853239F493FD859125
:1007100093FF81911F01853221F490E0B601C5D18C
:10072000E8CFEE24FF2420E02032B0F48B3269F0D1
:100730008C3228F4803251F0833271F40BC08D3248
:1007400039F0803349F421602CC02260246029C034
:10075000286027C0206125C027FD2CC0382F3053CA
:100760003A3098F426FF08C08E2D880FE82EEE0C44
:10077000EE0CE80EE30E15C08F2D880FF82EFF0C3F
:10078000FF0CF80EF30E20620CC08E3221F426FD11
:100790006CC1206406C08C3611F4206802C0883613
:1007A00049F4F10193FD859193FF81911F01882305
:1007B00009F0BACF982F9554933018F09052933097
:1007C00028F40C5F1F4FFFE3F9830DC0833631F02F
:1007D000833771F0833509F05CC021C0F801808156
:1007E00089830E5F1F4F420171E0A72EB12C15C007
:1007F00062E0662E712C600E711EF801808091807F
:1008000026FF03C06E2D70E002C06FEF7FEFC401C2
:100810002C8740D15C0183012C852F7716C052E0D4
:10082000652E712C600E711EF8018080918026FF6C
:1008300003C06E2D70E002C06FEF7FEFC4012C8704
:100840001ED15C012C852068830123FD1EC007C0DA
:1008500080E290E0B6012C8728D1FA942C858F2D68
:1008600090E0A816B906A0F310C0F40127FD859109
:1008700027FF81914F0190E0B6012C8716D12C857E
:10088000F110FA940894A108B108A114B10469F711
:10089000E9C0843611F0893641F527FF08C0F80118
:1008A00060817181828193810C5F1F4F09C0F801C3
:1008B00060817181882777FD8095982F0E5F1F4F8B
:1008C0004FE6B42EB22297FF09C09095809570959F
:1008D00061957F4F8F4F9F4FF0E8BF2AA2012AE01A
:1008E00030E00FD1782E741844C0853731F43FEED4
:1008F000B32EB2222AE030E025C099EFB92EB22201
:100900008F36C1F0803720F4883509F0AEC00DC0B5
:10091000803721F0883709F0A8C002C020E1B22A50
:10092000B4FE0BC084E0B82A08C0B4FE09C0E6E0FB
:10093000BE2A06C028E030E005C020E130E002C059
:1009400020E132E0B7FE08C0F80160817181828148
:1009500093810C5F1F4F07C0F8016081718180E0B7
:1009600090E00E5F1F4FA201CCD0782E7418FFE7E5
:10097000BF22B6FE0BC02EEFB2227E1438F4B4FEB6
:1009800007C0B2FC05C08FEEB82202C0A72C01C080
:10099000AE2C8B2D90E0B4FE0DC0FE01E70DF11DD5
:1009A0002081203319F4E9EEBE2209C0A394B2FEDF
:1009B00006C004C086789070009709F0A3948B2C31
:1009C0009924B3FC13C0B0FE0EC0AF1428F4E72C7A
:1009D000EF0CEA18AF2C07C0E72C05C080E290E0CE
:1009E000B60163D0A394AF14C8F304C0AF1410F4DD
:1009F000FA1801C0FF2484FE0EC080E390E0B60127
:100A000054D082FE1DC081FE03C088E590E010C076
:100A100088E790E00DC0C40186789070009781F05F
:100A200081FC02C080E201C08BE2B7FC8DE290E065
:100A3000B6013BD005C080E390E0B60136D0EA9421
:100A40007E14C8F37A94F201E70DF11D808190E0E5
:100A5000B6012BD07720B1F705C080E290E0B60157
:100A600024D0FA94FF20C9F744CEF60126813781BD
:100A700002C02FEF3FEFC9012C96E2E1BCC0FC01A0
:100A80000590615070400110D8F7809590958E0FB9
:100A90009F1F0895FC016150704001900110D8F72C
:100AA000809590958E0F9F1F08950F931F93CF935E
:100AB000DF938C01EB018B8181FF1BC082FF0DC096
:100AC0002E813F818C819D812817390764F4E8814C
:100AD000F9810193F983E88306C0E885F985802FC1
:100AE0000995009731F48E819F8101969F838E83B3
:100AF00002C00FEF1FEFC801DF91CF911F910F913F
:100B00000895FA01AA27283051F1203181F1E894A3
:100B10006F936E7F6E5F7F4F8F4F9F4FAF4FB1E0F0
:100B20003ED0B4E03CD0670F781F891F9A1FA11DEB
:100B3000680F791F8A1F911DA11D6A0F711D811DEC
:100B4000911DA11D20D009F468943F912AE0269FB1
:100B500011243019305D3193DEF6CF010895462F10
:100B60004770405D4193B3E00FD0C9F7F6CF462FF1
:100B70004F70405D4A3318F0495D31FD405241935A
:100B800002D0A9F7EACFB4E0A69597958795779517
:100B90006795BA95C9F700976105710508959B019E
:100BA000AC010A2E06945795479537952795BA9527
:100BB000C9F7620F731F841F951FA01D08952F9200
:100BC0003F924F925F926F927F928F929F92AF92DD
:100BD000BF92CF92DF92EF92FF920F931F93CF932A
:100BE000DF93CDB7DEB7CA1BDB0B0FB6F894DEBFC1
:100BF0000FBECDBF09942A88398848885F846E84E7
:100C00007D848C849B84AA84B984C884DF80EE8030
:100C1000FD800C811B81AA81B981CE0FD11D0FB639
:100C2000F894DEBF0FBECDBFED010895F894FFCF5D
:100C3000616E0061757300680048616C6C6F2057CD
:100C4000656C740A486965722069737420696872FA
:100C500020436F6E74726F6C6C657200616E3A2027
:100C6000536368616C74657420646173204C6963BC
:100C7000687420616E0A61757320736368616C74B7
:100C8000657420646173204C6963687420617573B6
:100C9000006C6963687420697374206175733A2508
:100CA000750A006C696368742069737420616E3A18
:100CB00025750A0000000002000000006801000025
:020CC000000032
:00000001FF
